10001ALICE MARTIN        MT0009500000320000009007806009000100000
10002BRIAN CHEN          AU0006200000028000012007103699000002000
10003CARLA DIAZ          PL0004800000045000023006504812000000000
10004DAVID NGUYEN        MT0011000000480000025007358415000120000
10005EMMA ROBERTS        AU0007200000035000009006901299000001000
10006FRANK HARRIS        PL0008500000020000031005606099000000000
10007GRACE KIM           MT0007800000380000018006254899000002000
10008HENRY SINGH         AU0005600000030000013006751299000005000
